:1000000000200010D5000000490100007D03000021
:1000100000000000000000000000000065DAFFEFB3
:100020000000000000000000000000004D01000082
:1000300000000000000000004F010000DD0C000087
:10004000550100005D010000650100006D01000028
:10005000510F00007D010000850100008D010000AE
:1000600095010000D1190000A5010000AD010000BC
:10007000B5010000BD010000C5010000CD01000078
:10008000D5010000DD010000E5010000ED010000E8
:10009000F5010000FD010000050200000D02000056
:1000A000150200001D020000250200002D020000C4
:1000B000350200003D020000450200004D02000034
:1000C000D4460000800000100400000084000010EE
:1000D0008C02000010B572B602F01EF90D4B07E05D
:1000E000186859681C000C349A6800F019F823004D
:1000F000094A9342F4D306E018681C000834596892
:1001000000F019F82300054A9342F5D362B602F0D5
:1001100061FEFEE7C0000000CC000000D40000003B
:1001200010B5002304E004680C600433043004318B
:100130009342F8D310BD002303E000220260043391
:1001400004308B42F9D37047FEE7FEE7FEE7FEE797
:10015000FEE7FEE710B501F069FC10BD10B501F037
:100160007FFC10BD10B5FFF7F4FF10BD10B501F016
:100170002FFF10BD10B501F03DFF10BD10B501F00F
:100180004BFF10BD10B5FFF7E4FF10BD10B501F037
:10019000DFFA10BD10B501F0CBFA10BD10B5FFF7B6
:1001A000D8FF10BD10B5FFF7D4FF10BD10B5FFF795
:1001B000D0FF10BD10B5FFF7CCFF10BD10B5FFF795
:1001C000C8FF10BD10B5FFF7C4FF10BD10B5FFF795
:1001D000C0FF10BD10B5FFF7BCFF10BD10B5FFF795
:1001E000B8FF10BD10B5FFF7B4FF10BD10B5FFF795
:1001F000B0FF10BD10B501F041FA10BD10B501F00F
:10020000B7FA10BD10B5FFF7A4FF10BD10B5FFF78A
:10021000A0FF10BD10B501F0D5FA10BD10B501F06A
:10022000F7FA10BD10B501F019FB10BD10B501F0C3
:100230003BFB10BD10B501F05DFB10BD10B5FFF725
:1002400088FF10BD10B5FFF784FF10BD10B5FFF794
:1002500080FF10BDFFFFFFFFFFFFFFFFFFFFFFFF5E
:10026000FFFFFFFFFFFFFFFFFFFFFFFFFFFFFFFF9E
:10027000FFFFFFFFFFFFFFFFFFFFFFFFFFFFFFFF8E
:10028000FFFFFFFFFFFFFFFFFFFFFFFFFFFFFFFF7E
:10029000FFFFFFFFFFFFFFFFFFFFFFFFFFFFFFFF6E
:1002A000FFFFFFFFFFFFFFFFFFFFFFFFFFFFFFFF5E
:1002B000FFFFFFFFFFFFFFFFFFFFFFFFFFFFFFFF4E
:1002C000FFFFFFFFFFFFFFFFFFFFFFFFFFFFFFFF3E
:1002D000FFFFFFFFFFFFFFFFFFFFFFFFFFFFFFFF2E
:1002E000FFFFFFFFFFFFFFFFFFFFFFFFFFFFFFFF1E
:1002F000FFFFFFFFFFFFFFFFFFFFFFFFFFFFFFFF0E
:1003000090B589B000AFF860B9603B60FB1D1A7012
:10031000FB1D1B78082B01D0012324E0144BFA1D90
:1003200012781A70FA68124B5A6014210C007B186C
:10033000180001F0FDFC21007B18BA681A607B18D8
:1003400001221A717B1801225A71094B5B683A68C5
:100350007918180001F06CFC054B064A9A60044BB2
:10036000054ADA6000231800BD4609B090BDC046BA
:1003700084000010911E0000F11E00000420714650
:10038000084202D0EFF3098001E0EFF308808169B1
:100390000A88054B9A4200D0FEE702318161202194
:1003A00001607047C0460000ABBE000080B584B05D
:1003B00000AFB9607A600F23FB18021C1A70424B21
:1003C0001B78002B0BD10F23FB181B78302B06D189
:1003D0003D4B1B780133DAB23B4B1A7022E03A4BAB
:1003E0001B78012B0BD10F23FB181B780D2B06D18B
:1003F000354B1B780133DAB2334B1A7012E0324BB3
:100400001B78022B0BD10F23FB181B780A2B06D16C
:100410002D4B1B780133DAB22B4B1A7002E02A4BBA
:1004200000221A70284B1B78032B08D1BB680022CE
:100430001A717B6801221A71234B00221A70234B18
:100440001B78002B0BD10F23FB181B78342B06D104
:100450001E4B1B780133DAB21C4B1A7022E01B4B87
:100460001B78012B0BD10F23FB181B780D2B06D10A
:10047000164B1B780133DAB2144B1A7012E0134B8F
:100480001B78022B0BD10F23FB181B780A2B06D1EC
:100490000E4B1B780133DAB20C4B1A7002E00B4B97
:1004A00000221A70094B1B78032B08D1BB6800226D
:1004B0001A717B6801221A71044B00221A70C0461F
:1004C000BD4604B080BDC0460803001009030010FB
:1004D00080B58CB000AFB9607A603B600F23FB1829
:1004E000021C1A70AB4B1B78002B0BD10F23FB188F
:1004F0001B78302B06D1A74B1B780133DAB2A54B02
:100500001A7022E0A34B1B78012B0BD10F23FB1891
:100510001B780D2B06D19F4B1B780133DAB29D4B14
:100520001A7012E09B4B1B78022B0BD10F23FB1888
:100530001B780A2B06D1974B1B780133DAB2954B07
:100540001A7002E0934B00221A70924B1B78032B17
:1005500000D0DAE0BB6800221A707B6801221A70B2
:100560006423FB622B23FB1800221A702A23FB183A
:1005700000221A702623FB186D221A702923FB18FB
:1005800000221A702823FB180E221A702723FB184A
:1005900000221A70A6E02B23FB181B78002B5ED0DC
:1005A000FB6A3A68D3181B787C2B17D12B23FB18D6
:1005B00000221A702A23FB1801221A702922BB1864
:1005C000BA1812781A702822BB18BA1812781A7042
:1005D0002722BB18BA1812781A7083E02723FB1859
:1005E0001B78002B18D1FB6A3A68D3181B782F2B85
:1005F00012D9FB6A3A68D3181B78392B0CD8FB6ADE
:100600003A68D3181A782923FB18303A1A7027232E
:10061000FB180A221A7022E0FB6A3A68D3181B788A
:100620002F2B1CD9FB6A3A68D3181B78392B16D8A4
:10063000FB6A3A68D3181B78303BDBB227203A18A4
:1006400012785343D9B22922BB18BA1812788A18E3
:100650001A703A183B1819781B784B4313702A23E9
:10066000FB181B78002B23D0FB6A3A68D3181B7841
:100670002F2B1DD9FB6A3A68D3181B78392B17D852
:10068000FB6A3A68D21828203B181B78117814228C
:10069000BA18D1543B181B78002B03D12A23FB181E
:1006A00000221A7028217B181A787B18013A1A70D8
:1006B000FB6A3A68D3181B786D2B05D0FB6A3A6841
:1006C000D3181B78682B0AD12B23FB1801221A7030
:1006D000FB6A3A68D2182623FB1812781A70FB6A54
:1006E000013BFB62FB6A002B00DB54E7BB6B29225A
:1006F000BA1812781A701423F918FB6B0F2218001D
:1007000002F06FFB234B00221A70234B1B78002B47
:100710000BD10F23FB181B78342B06D11E4B1B78F3
:100720000133DAB21C4B1A7022E01B4B1B78012BF1
:100730000BD10F23FB181B780D2B06D1164B1B7802
:100740000133DAB2144B1A7012E0134B1B78022BF0
:100750000BD10F23FB181B780A2B06D10E4B1B78ED
:100760000133DAB20C4B1A7002E00B4B00221A7004
:10077000094B1B78032B08D1BB6800221A707B68D9
:1007800001221A70044B00221A70C046BD460CB0FC
:1007900080BDC046080300100903001080B588B072
:1007A00000AFB9607A603B600F23FB18021C1A701F
:1007B0001423FB18224A1168196012791A71214B0F
:1007C0001B78002B0BD10F23FB181B780D2B06D1A8
:1007D0001C4B1B780133DAB21A4B1A7012E0194B1A
:1007E0001B78012B0BD10F23FB181B780A2B06D18A
:1007F000144B1B780133DAB2124B1A7002E0114B22
:1008000000221A700F4B1B78022B14D13968142365
:10081000FB180522180002F019FB0300FB61FB69BD
:10082000002B08D1BB680022DA707B680122DA70E5
:10083000044B00221A70C046BD4608B080BDC046B9
:10084000902F00000803001080B584B000AFB9609D
:100850007A600F23FB18021C1A70424B1B78002B86
:100860000BD10F23FB181B78302B06D13D4B1B7887
:100870000133DAB23B4B1A7022E03A4B1B78012B62
:100880000BD10F23FB181B780D2B06D1354B1B7892
:100890000133DAB2334B1A7012E0324B1B78022B61
:1008A0000BD10F23FB181B780A2B06D12D4B1B787D
:1008B0000133DAB22B4B1A7002E02A4B00221A7075
:1008C000284B1B78032B08D1BB6800225A707B6829
:1008D00001225A70234B00221A70234B1B78002BE5
:1008E0000BD10F23FB181B78342B06D11E4B1B7822
:1008F0000133DAB21C4B1A7022E01B4B1B78012B20
:100900000BD10F23FB181B780D2B06D1164B1B7830
:100910000133DAB2144B1A7012E0134B1B78022B1E
:100920000BD10F23FB181B780A2B06D10E4B1B781B
:100930000133DAB20C4B1A7002E00B4B00221A7032
:10094000094B1B78032B08D1BB6800225A707B68C7
:1009500001225A70044B00221A70C046BD4604B0F2
:1009600080BDC046080300100903001080B586B0A2
:1009700000AFB9607A603B600F23FB18021C1A704D
:100980004A4B1B78002B0BD10F23FB181B78302B05
:1009900006D1464B1B780133DAB2444B1A7022E081
:1009A000424B1B78012B0BD10F23FB181B780D2B0F
:1009B00006D13E4B1B780133DAB23C4B1A7012E081
:1009C0003A4B1B78022B0BD10F23FB181B780A2BF9
:1009D00006D1364B1B780133DAB2344B1A7002E081
:1009E000324B00221A70314B1B78032B19D1002394
:1009F0007B610AE07B693A6AD2187B693968CB1857
:100A000012781A707B6901337B617B690E2BF1DDF3
:100A1000BB6800229A707B6801229A70234B0022E7
:100A20001A70234B1B78002B0BD10F23FB181B785C
:100A3000342B06D11E4B1B780133DAB21C4B1A70D3
:100A400022E01B4B1B78012B0BD10F23FB181B78CB
:100A50000D2B06D1164B1B780133DAB2144B1A70EA
:100A600012E0134B1B78022B0BD10F23FB181B78C2
:100A70000A2B06D10E4B1B780133DAB20C4B1A70DD
:100A800002E00B4B00221A70094B1B78032B08D194
:100A9000BB6800229A707B6801229A70044B002286
:100AA0001A70C046BD4606B080BDC046080300109F
:100AB0000903001080B582B000AF78607B68002B1E
:100AC00003D1084B180001F03DFC7B6800221A712D
:100AD0007B6800221A707B6800229A70C046BD466F
:100AE00002B080BD982F000080B582B000AF786062
:100AF0007B68002B03D1084B180001F023FC7B68B6
:100B000000221A707B6800229A707B6800221A719A
:100B1000C046BD4602B080BDD02F000080B582B077
:100B200000AF78607B68002B03D1114B180001F0F7
:100B300009FC7B680F4A1100180001F0C5FE7B68B4
:100B40003D330D4A1100180001F0BEFE7B683133C1
:100B50000A4A1100180001F0B7FE7B682533084AE5
:100B60001100180001F0B0FEC046BD4602B080BDC5
:100B70000830000040300000643000007030000099
:100B80007C30000080B582B000AF0200FB1D1A70FF
:100B9000FB1D1B787F2B09D8FB1D1B781A001F2318
:100BA0001A40044B012191400A001A60C046BD461C
:100BB00002B080BD00E100E090B583B000AF02005C
:100BC0003960FB1D1A70FB1D1B787F2B28D82F4A1C
:100BD000FB1D1B785BB29B08C0339B009B58FA1D22
:100BE0001278110003220A40D200FF2191400A002E
:100BF000D2431A4011003B689B01FF221A40FB1DA3
:100C00001B78180003230340DB009A401F48FB1D9C
:100C10001B785BB29B080A43C0339B001A5031E03B
:100C20001B4AFB1D1B7819000F230B40083B9B0838
:100C300006339B00D31804331B68FA1D1278110089
:100C400003220A40D200FF2191400A00D2431A40F9
:100C500011003B689B01FF221A40FB1D1B78180006
:100C600003230340DB009A400948FB1D1B781C004E
:100C70000F232340083B9B080A4306339B00C318FD
:100C800004331A60C046BD4603B090BD00E100E0E9
:100C900000ED00E080B582B000AF78607B68013B7A
:100CA0000C4A934201D9012310E00B4B7A68013AB8
:100CB0005A6001235B4203211800FFF77DFF064BBA
:100CC00000229A60044B07221A6000231800BD46D8
:100CD00002B080BDFFFFFF0010E000E080B500AF74
:100CE000054B1B68002B04D0034B1B685A1E024B9C
:100CF0001A60C046BD4680BD1801001080B582B0A4
:100D000000AF7860054B7A681A60C046034B1B68D9
:100D1000002BFBD1C046BD4602B080BD18010010BB
:100D200090B585B002AF0200FB1D1A70214B1B79F4
:100D3000002B06D0204A1F49FB1D1B781800FFF727
:100D400035FB1C4B9B78002B09D01C4C1A4A1949C7
:100D5000FB1D18781A4B00932300FFF707FE154B75
:100D60001B78002B0BD0164C134A1249FB1D187828
:100D7000144B0193144B00932300FFF7A9FB0D4B79
:100D80005B78002B06D00C4A0A49FB1D1B78180023
:100D9000FFF75AFD074BDB78002B07D0084C064ABB
:100DA0000449FB1D18782300FFF7F8FCC046BD4638
:100DB00003B090BD1C01001024010010F8000010C9
:100DC00094000010080100100A03001080B500AF65
:100DD000544B1B79002B14D0534B64220021180074
:100DE00002F003F8514B00221A704E4B00221A7188
:100DF0004F4B50480C22190001F04AF84E4B01228B
:100E00009A70484B9B78002B15D0474B64220021E9
:100E1000180001F0EAFF454B00221A70414B0022F6
:100E20009A70A023180600230922002101F088FEF1
:100E3000414B0122DA703B4BDB78002B1BD03A4B45
:100E400064220021180001F0D0FF384B00221A70F4
:100E5000344B0022DA70394B36480C22190001F06D
:100E600017F8A023180600230822002101F068FECD
:100E7000314B01221A702B4B1B78002B14D02A4BBC
:100E800064220021180001F0B0FF284B00221A70E4
:100E9000244B00221A702A4B26480C22190000F01D
:100EA000F7FF254B01225A701E4B5B78002B36D082
:100EB0001D4B64220021180001F097FF1B4B0022FC
:100EC0001A70184B00225A701E491F4B0F2218002F
:100ED00001F0BCFF031E11D11C4B01221A70A0238C
:100EE000180601230D22002101F02AFEA023180676
:100EF00001230122002101F023FE0DE0A0231806AA
:100F000000230122002101F01BFEA023180601236B
:100F10000822002101F014FE074B0122DA70C046BE
:100F2000BD4680BD24010010940000100C03001089
:100F300051010010008006401C01001069010010E2
:100F40005D01001008010010F80000100B030010F4
:100F5000B0B584B000AF1C4B180001F00BFE0200CE
:100F6000012313402BD00B257C19174B180001F0DF
:100F700019FE03002370154B1B78DBB25A1CD1B24B
:100F8000124A11701900124B7A1912785A540E4BEA
:100F9000180001F0EFFD03007B600023FB6002E01E
:100FA000FB680133FB607B6804221340F8D00B23FD
:100FB000FB181B781800FFF7B3FEFFF707FFC046CA
:100FC000BD4604B0B0BDC046008006400C03001012
:100FD0009400001080B500AF01F0F0FE01F0E2FED9
:100FE00001F0E7FE01F05AF8224B1A68FA23990043
:100FF000100001F054FF03001800FFF74BFE031E22
:1010000000D0FEE71C4B1800FFF778FE1B4B1800C2
:10101000FFF750FD1A4B1800FFF766FD194B18003B
:10102000FFF77CFD00F038F8174B1B685A1C164B75
:101030001A60164B1B78012BF6D1154B1B781A0042
:10104000144B53431800FFF759FE104B00221A703F
:101050000F4B00221A70A023180600230D22002136
:1010600001F06EFDA023180601230822002101F0E3
:1010700067FDD9E780000010204E00001C01001021
:10108000240100102C010010780100100B03001047
:101090000A03001060EA000080B584B000AF3B1D79
:1010A000180000F045FE3B1D01221A713B1D012274
:1010B0005A713B1D962292011A60012000F0C8F877
:1010C00002003B1D0C48190000F0B2FD0B4B0A4812
:1010D0002422190000F0DCFE094B01221A71064B94
:1010E0000121180001F050FD042001F011FDC0465F
:1010F000BD4604B080BDC046008006402C010010F3
:101100001C01001080B500AF00F078F8054B9B6F14
:10111000FF221340190001F0C2FE03001800BD4673
:1011200080BDC0460080044080B500AF00F0C8F824
:101130000100044B9B681F22134001334B431800EE
:10114000BD4680BD0080044080B500AF024B1B68E7
:101150001800BD4680BDC0468001001080B500AFBC
:10116000024B1B681800BD4680BDC0467C010010C4
:1011700080B582B000AF786039607B68002B03D106
:101180000D4B180001F0DEF87B681B683A68D2430B
:101190001A407B681A607B681A683B681A437B6850
:1011A0001A60C0467B681B683A681340FAD0C04694
:1011B000BD4602B080BDC0468830000080B500AF9B
:1011C000014B1800BD4680BD001BB70080B582B042
:1011D00000AF00237B60084A8E239B00D358202257
:1011E000134003D1FFF7BAFF03007B607B68180050
:1011F000BD4602B080BDC0460080044080B582B0CC
:1012000000AF00237B60114B1B6F012B0AD004D36E
:10121000022B0CD0032B0FD013E0FFF7CFFF0300FE
:101220007B600EE000F04CF803007B6009E0FFF704
:101230008BFF03007B6004E0FFF776FF03007B6019
:10124000C0467B681800BD4602B080BD00800440E7
:1012500080B584B000AF0200FB1D1A70FB1D1B7827
:10126000072B22D89A00154BD3181B689F46FFF70F
:1012700049FF0300FB601BE0FFF7C0FF0300FB60BA
:1012800016E0FFF79BFF0300FB6011E0FFF766FF2E
:101290000300FB600CE0FFF757FF0300FB6007E073
:1012A000FFF742FF0300FB6002E00023FB60C04643
:1012B000FB681800BD4604B080BDC0465C3100002C
:1012C00080B582B000AF00237B600F4B1B6C032204
:1012D0001340012B08D002D3032B0AD00EE0FFF7F6
:1012E0006DFF03007B6009E0FFF770FF03007B6088
:1012F00004E0FFF733FF03007B60C0467B68180003
:10130000BD4602B080BDC0460080044080B584B0B8
:1013100000AF78600023FB607B680D4A934202D9DE
:101320000023FB600FE07B680A4A934202D9012345
:10133000FB6008E07B68084A934202D90223FB6005
:1013400001E00323FB60FB681800BD4604B080BDCC
:10135000802FA604C0175302E08B290180B586B008
:1013600000AF78607B681B68374A934203D9374BDC
:10137000180000F0E7FF00237B6100233B6100239E
:10138000FB60334A8E239B00D358314980221A4395
:101390008E239B00CA502E4B1B6C032293437A680A
:1013A0001279134319002A4B1A6C294B0A431A6409
:1013B000284B03211800FFF7DBFEFFF781FF030036
:1013C000FB60FB68002B03D1234B180000F0BAFF31
:1013D0007B681B68F968180001F061FD03007B6100
:1013E0007B681B681800FFF791FF03003B61184BF7
:1013F0009B687F2293431A007B69013B1F210B40AE
:101400001A4311003B695B0160221A40104B0A43EA
:101410009A600F4A8E239B00D3580D498022934334
:101420001A008E239B00CA50C046094BDB6801227C
:101430001340FAD0FB687A695A43084B1A60C046D9
:10144000BD4606B080BDC04600E1F505AC300000E9
:101450000080044044800440FC30000084010010FF
:1014600080B584B000AF0200BB1D1A80BB1D1B8875
:10147000FF221340FB60BB1D1B881B0A9BB21A0096
:10148000FF231340BB600F4B1B6F03221340BA684E
:101490009A4212D0FB68002B0FD10A4B1B6F03221C
:1014A00093431900BB6803221A40064B0A431A678C
:1014B000054B01211800FFF75BFEC046BD4604B096
:1014C00080BDC046008004407480044080B584B074
:1014D00000AF78600023FB6006E00C4A7B68934213
:1014E00006D0FB680133FB60FB68002BF5D000E001
:1014F000C046FB68002B03D0054B180000F022FF0C
:10150000FB681800BD4604B080BDC0460080005096
:101510005C33000090B587B000AF78607B6818003E
:1015200001F04BFB03003B6100237B6100237B61E7
:1015300099E07A693B69D2184F4B9200D358FB600F
:10154000FB68002B00D18AE0FB681B7B1A001F237D
:101550001340BB60FB689B6858331A00FB681B7B19
:101560005B09DBB29B00D3181A68BB68DA40130032
:10157000012213401AD0FB689B6858331A00FB689D
:101580001B7B5B09DBB29B00D3180121BA68914039
:101590000A001A60FB681B68002B07D0FB681C68F8
:1015A000FB685968F86800230122A047FB689B6824
:1015B00060331A00FB681B7B5B09DBB29B00D3180E
:1015C0001A68BB68DA401300012213401AD0FB6886
:1015D0009B6860331A00FB681B7B5B09DBB29B00D6
:1015E000D3180121BA6891400A001A60FB681B6891
:1015F000002B07D0FB681C68FB685968F86801235A
:101600000122A047FB689B6840331A00FB681B7BE4
:101610005B09DBB29B00D3181A68BB68DA40130081
:10162000012213401CD0FB689B6840331A00FB6802
:101630001B7B5B09DBB29B00D3180121BA68914088
:101640000A001A60FB681B68002B09D0FB681C6845
:10165000FB685968F86802230022A04700E0C046F2
:101660007B6901337B617B69182B00D861E7C04639
:10167000BD4607B090BDC0468801001080B500AFE0
:10168000034B1800FFF746FFC046BD4680BDC0466D
:101690000080005080B582B000AF0200FB1D1A70C0
:1016A000074A8023D358FA1D1278012191400A007D
:1016B0000349134380228B50C046BD4602B080BD13
:1016C0000080044080B582B000AF786039603B682C
:1016D000002B03D0054B180000F034FE0623180041
:1016E000FFF7D8FFC046BD4602B080BDEC39000010
:1016F00080B582B000AF786039607B681B680122DA
:10170000134006D0084B1B6839687A681000984768
:1017100005E0064B1B6839687A6810009847C04698
:10172000BD4602B080BDC046FC01001000020010A2
:1017300080B500AF044B1B68044A19001000FFF786
:10174000D7FFC046BD4680BDEC010010000005403B
:1017500080B500AF044B5B68044A19001000FFF726
:10176000C7FFC046BD4680BDEC01001000400540EB
:1017700080B500AF044B9B68044A19001000FFF7C6
:10178000B7FFC046BD4680BDEC0100100000074019
:1017900080B586B000AF7860094B9B6A7B617B693E
:1017A0001B0E3B613B69002B05D07B68DB6AFB604D
:1017B0007B68FA68DA623B691800BD4606B080BDF6
:1017C000004000A080B582B000AF0F4B1800FFF7BB
:1017D000DFFF03007B600D4B1B68002B05D00B4B1C
:1017E0001B687A68110000209847074B1B6801228C
:1017F000134004D1044B0021180001F05AFAC046EE
:10180000BD4602B080BDC046004000A004020010EA
:1018100080B582B000AF0F4B1800FFF7B9FF03008F
:101820007B600D4B5B68002B05D00B4B5B687A68C7
:10183000110001209847074B1B680222134004D176
:10184000044B0121180001F034FAC046BD4602B035
:1018500080BDC046004000A00402001080B582B0E8
:1018600000AF0F4B1800FFF793FF03007B600D4B99
:101870009B68002B05D00B4B9B687A6811000220F7
:101880009847074B1B680422134004D1044B0221E4
:10189000180001F00EFAC046BD4602B080BDC04639
:1018A000004000A00402001080B582B000AF0F4BD2
:1018B0001800FFF76DFF03007B600D4BDB68002B0A
:1018C00005D00B4BDB687A68110003209847074B63
:1018D0001B680822134004D1044B0321180001F0B7
:1018E000E8F9C046BD4602B080BDC046004000A039
:1018F0000402001080B582B000AF0F4B1800FFF754
:1019000047FF03007B600D4B1B69002B05D00B4B81
:101910001B697A68110004209847074B1B68102246
:10192000134004D1044B0421180001F0C2F9C04651
:10193000BD4602B080BDC046004000A004020010B9
:1019400080B584B000AF0200FB1D1A70FB1D1B7830
:10195000FB600122FB689A401300BB60FB681F2BF1
:1019600003D9074B180000F0EDFC064B5A68BB6822
:10197000D943044B0A405A60C046BD4604B080BDFE
:101980002C3A00000080044080B584B000AF020013
:10199000FB1D1A70FB1D1B78FB600122FB689A403F
:1019A0001300BB60FB681F2B03D9074B180000F026
:1019B000C9FC064B5968054BBA680A435A60C046D1
:1019C000BD4604B080BDC046583A000000800440C7
:1019D00080B500AF034B1B68034A10009847C04610
:1019E000BD4680BD240200100040005080B582B08A
:1019F00000AF786039607B68180001F07FF9031E42
:101A000006D0084B1B6839687A681000984705E0D3
:101A1000054B1B6839687A6810009847C046BD4678
:101A200002B080BD300200103402001080B500AF5B
:101A3000084B1B68002B03D1074B180000F082FCF9
:101A4000044B1B68054A19001000FFF7CFFFC04682
:101A5000BD4680BD28020010303F000000800540D8
:101A600080B500AF084B5B68002B03D1074B180013
:101A700000F068FC044B5B68054A19001000FFF792
:101A8000B5FFC046BD4680BD280200105C3F000087
:101A900000C0054080B586B000AF78600800110036
:101AA000FB1C021C1A70BB1C0A1C1A707B68002BE2
:101AB00003D11D4B180000F045FCFB1C1B782F2B9D
:101AC00003D91A4B180000F03DFC00237B61002372
:101AD0003B61FB1C1B789B08DBB27B61FB1C1B780A
:101AE00003221340DB003B617B687A699200D35884
:101AF000FB60FF223B699A401300DB431A00FB683E
:101B00001340FB60BB1C1A783B699A4013001A0013
:101B1000FB681343FB607B687A699200F968D150D7
:101B2000C046BD4606B080BD883F0000B03F000003
:101B300080B584B000AFF860B960FB1D1A70FB6817
:101B4000002B03D11A4B180000F0FCFBBB68002BE4
:101B500007D1BB68174A934203D9174B180000F00E
:101B6000F1FBFB1D1B78002B0FD0BB68002B1ADB91
:101B7000FA68E0235B00D358BA68D2431A401100D8
:101B8000FA68E0235B00D1500DE0BB68002B0ADB54
:101B9000FA68E0235B00D258BB681A431100FA6868
:101BA000E0235B00D150C046BD4604B080BDC046B6
:101BB000E83F0000400000801040000080B582B087
:101BC00000AF0200FB1D1A70074A8023D358FA1D8C
:101BD0001278012191400A000349134380228B505F
:101BE000C046BD4602B080BD0080044080B584B0D0
:101BF00000AF78600023FB600BE00B4BFA689200AB
:101C0000D2587B689A4201D1FB6809E0FB68013336
:101C1000FB60FB68022BF0DD044B180000F092FB28
:101C20001800BD4604B080BD584000006C40000064
:101C300080B586B000AFF860B9607A6000237B6140
:101C4000FB68002B05D0BB68002B02D07B68002B03
:101C500003D1344B180000F075FBFB681800FFF748
:101C6000C5FF03003B61304A3B69D3181B7818005D
:101C7000FFF7A4FF2D4A3B69D3181B78180001F029
:101C800029F8BB689B791B0130221A40BB68DB79BD
:101C90009B0140210B401A43BB689B7A5B08DBB277
:101CA000D90280231B010B401A43BB681B7A9B009F
:101CB0000C210B401A43BB685B7ADB031B041B0C33
:101CC0001A43BB689B7A99038023DB010B401343C3
:101CD00001221A43FB681A60BB681B68002B08D0FE
:101CE000BB6819687A68FB68180000F04BF80300BD
:101CF0007B617B69002B01D07B690EE0BB685A7960
:101D0000FB681100180001F008F8BB681A79FB683D
:101D10001100180001F024F800231800BD4606B099
:101D200080BDC046C841000064400000684000001B
:101D300080B582B000AF78607B68002B03D1104B78
:101D4000180000F0FFFA7B68962292011A607B6807
:101D500000229A717B680022DA717B6801221A7274
:101D60007B6800225A727B6800221A717B6800220D
:101D70005A717B6800229A72C046BD4602B080BD8F
:101D80005042000080B58CB000AFF860B9607A6056
:101D9000FB68002B05D0BB68002B02D07B68002BB2
:101DA00003D1384B180000F0CDFA01235B42FB62EF
:101DB0000F23BB6201235B427B620023FB61002394
:101DC000BB6100233B6200237B61FB681A688023B0
:101DD0001B0113400AD0B968786801F060F803006D
:101DE000BB61BB695A1EFB681A6246E0BB6A3B6274
:101DF00034E03B6A0133BA6853431900786801F054
:101E00004EF80300013BBB61BB691F4A934221D8D6
:101E10003B6A0133BA69013253431900786801F013
:101E20003EF803007B61BA687B699A4203D27A6903
:101E3000BB68D31A02E0BA687B69D31AFB61FA69FE
:101E4000FB6A9A4207D2FB69FB623B6ABB62BB69D1
:101E50007B6200E0C0463B6A013B3B623B6A072B6A
:101E6000C7D87B6A084A934201D9084B06E0FB6851
:101E7000BA6A9A62FB687A6A1A6200231800BD4641
:101E80000CB080BD7C420000FFFF00004F16000038
:101E900080B584B000AFF860B9607A60FB68002B51
:101EA00002D0BB68002B14D1104B180000F04AFA86
:101EB000C046FB689B6804221340FAD0BB681B78BD
:101EC0001A00FB68DA61BB680133BB607B68013BC9
:101ED0007B607B68002BEBD1C046FB689B680822C7
:101EE0001340FAD0C046BD4604B080BDD8420000C1
:101EF00080B586B000AFF860B9607A60FB68002BEF
:101F000002D0BB68002B50D12C4B180000F01AFAFD
:101F1000C046FB689B6801221340FAD0FB685B69EE
:101F2000DAB2BB681A70BB680133BB60FB689B68A0
:101F30007B617A6980239B01134008D0FB689B6812
:101F4000802292011A43FB689A601D4B31E07A6946
:101F50008023DB01134008D0FB689B688022D201FC
:101F60001A43FB689A60174B23E07A6980231B02AF
:101F7000134008D0FB689B68802212021A43FB685A
:101F80009A60114B15E0FB689A6880235B00134050
:101F900008D0FB689B68802252001A43FB689A6055
:101FA0000A4B06E07B68013B7B607B68002BAFD16E
:101FB00000231800BD4606B080BDC0461C4300008B
:101FC0004C1600004D1600004B1600004E16000087
:101FD00080B500AF044B1A68044B1B680448190015
:101FE0009047C046BD4680BD440200103802001034
:101FF0000040064080B500AF044B1A68044B5B6894
:10200000044819009047C046BD4680BD44020010F8
:10201000380200100080064080B500AF044B1A68FB
:10202000044B9B68044819009047C046BD4680BDDC
:10203000440200103802001000C0064080B582B093
:1020400000AF0200FB1D1A70074A8023D358FA1D07
:102050001278012191400A000349134380228B50DA
:10206000C046BD4602B080BD0080044080B582B04D
:1020700000AF02003960BB1D1A80BB1D1B881B0509
:102080001B0D054A944663443A68FF210A401A60D2
:10209000C046BD4602B080BD0080044080B582B01D
:1020A00000AF0E20FFF7CAFF01219420FFF7DEFFEB
:1020B000032000F00FFEFFF7A1F80200962399011C
:1020C000094813000822FEF71BF903007B607B68B8
:1020D000002B03D0054B180000F034F97B68180082
:1020E000BD4602B080BDC046004006403C460000F0
:1020F00080B582B000AF0200BB1D1A80BB1D1A88DC
:10210000BB1D1B881B0A9BB21900FF230B4005490E
:102110008C466344FF210A401A60C046BD4602B0A7
:1021200080BDC0460080044080B582B000AF7860BA
:102130007B68002B03D1094B180000F003F9084B12
:102140009B6FFF22934319007B68FF221A40044BC8
:102150000A439A67C046BD4602B080BD6C46000087
:102160000080044080B582B000AF7860074A8E23BB
:102170009B00D3587A68D24304491A408E239B00AF
:10218000CA50C046BD4602B080BDC0460080044073
:1021900080B582B000AF0120FFF7E4FF0220FFF717
:1021A000E1FF8023DB011800FFF7A2FF3B000022C4
:1021B0001A713B000B4A1A603B001800FFF7CEF87B
:1021C0000020FFF74DF9E0231B021800FFF790FFF6
:1021D0000120FFF7A9FF044B024A1A60C046BD4622
:1021E00002B080BD001BB7008000001080B582B037
:1021F00000AF0200FB1D1A70074A8023D358FA1D56
:102200001278012191400A000349134380228B5028
:10221000C046BD4602B080BD0080044080B582B09B
:1022200000AF0200FB1D1A70084A8023D358FA1D24
:102230001278012191400A00D243044913408022C0
:102240008B50C046BD4602B080BDC04600800440F1
:1022500080B582B000AF1220FFF7C8FF0720FFF75C
:10226000C5FF2B4B042200211800FFF713FC284B5D
:10227000002201211800FFF70DFC254B112205213A
:102280001800FFF707FC224B172206211800FFF762
:1022900001FC80235B001E4801221900FFF748FC67
:1022A0003B1D01221A703B1D00225A703B00194A47
:1022B00012881A80A0231B0600211800FFF702FADB
:1022C0003A1DA023180613000D22002100F097FCF0
:1022D0003A00A023180613000922002100F08FFC09
:1022E0003A00A023180613000122002100F087FC09
:1022F0003A00A023180613000822002100F07FFCFA
:102300000720FFF78BFFC046BD4602B080BDC04628
:1023100000C000409846000080B500AF054B064A5B
:102320009A60064B064A1A6000F04FFDC046BD4653
:1023300080BDC04600ED00E00000000080000010FD
:10234000001BB70070B505000E4C0F48210000F0CF
:1023500066FD2100280000F062FD0C4A111DCB6FC4
:10236000013BCB67002B07DB936F591C91670A2257
:102370001A7000F035FD70BD21000A2000F028F829
:10238000F7E7C046C0020010A04600004802001057
:10239000202310B50400C2689A43E2608369826A10
:1023A00093420CD000F0BAF8E368074A1A401023B1
:1023B0001343E360A36AA3612369E3622360E268D5
:1023C000024B1340E36010BDEFCFFFFFBFBFFFFF25
:1023D000F8B5CA684E4B050013400C00CB6093065D
:1023E00002D50800FFF7D4FFA268E668531C0FDA95
:1023F000B3050DD402235B429B1AA36090235B02BA
:102400001E432368E6605A1C22601D70E8B20AE091
:10241000404A3240022A07D00023A36080331E4383
:10242000E66001204042F8BD80213B4B0902334069
:102430008B420AD10021200000F048F9E3689B0696
:1024400002D52000FFF7A4FFE6689023F0225B028C
:1024500033431201E360164210D1606900F08AFD37
:10246000002820D073051ED5230024332361236068
:102470000123E36192235B023343E360902109016E
:10248000226826690B4224D0E16A8A4200D91100F1
:10249000891B17D1731CE3622360E3695A1EA26093
:1024A00023633570B2E780277F00380000F0FEF824
:1024B0009423E2685B0233431A4320612060E761A2
:1024C000E260DBE72200300000F056F80028E1D09F
:1024D000A7E7511CE8B221601070E26A21688A42C5
:1024E00000D91100E269891B22635B0504D40A2824
:1024F00002D08A4200DD89E70023E6622660A360FD
:102500002200300000F038F8002800D17EE788E78C
:10251000FFFFF7FF8A10000010A0000070B5040054
:1025200005690168C26A124BC0680340E3608223F8
:102530000340022B02D00120404270BD80235B0289
:102540001840FAD0914200D211008D4208D10020EB
:10255000E268084BE56213402560A060E360ECE7A9
:10256000491B2200280000F007F80028EFD0E2E71E
:10257000FFFFF7FFFFFFFEFFF7B5D56801900E00E4
:1025800014005769EB0205D5102338001D4300F0F5
:10259000EEFCA061104B1D420FD0A169380000F085
:1025A000EFFC002806DA80230120E2684042134352
:1025B000E3600FE0094B1D40E560320001993800EF
:1025C00000F0E4FC43005B08F61AA3699E19A661BB
:1025D0000028E8D1FEBDC04610000200EFFFFDFF5D
:1025E000F7B50027304EC51C3468AD08B84214D08A
:1025F0002900EB1C9C460A310191002C0FD10C30B4
:1026000000F0B0F9431C08D080239B0503604560AF
:102610008460002F46D130601EE00020FEBD802285
:102620002368520593423AD1A7686368002F0BD004
:1026300080213A6849058A4206D17A6803339B189B
:102640006360BB68A360EFE7AB4207DB9C4505DB3B
:1026500080239B05236020000C30DFE7019A934222
:1026600010D9802220008021920522600C30AA001F
:102670005B1B82184905033B6560A26011605360D3
:102680009760CBE7002F0AD19B00C01A00F06AF9CF
:10269000431CC2D080239B0523606560DBE72700D5
:1026A000A468AAE7B860D7E70003001010B5FFF7E9
:1026B00097FF041E05D11722034900F067FC00F0C4
:1026C0008FFB200010BDC046B5460000F7B5394B62
:1026D000C56804000E0000921D4201D1022741E0AE
:1026E00043691800019300F045FC071EF6D1009BDA
:1026F000012B28D0022B2BD0002BEFD1002EEDDBAD
:10270000AB0404D52368E26A9A4200D2E362A0696E
:10271000B0420EDCE26A2368934200D213002269C1
:1027200019180092891AB14203DB216B4218B24298
:102730002EDC20231D430023A662A36063601E4B92
:102740001D40E5600EE0200000F038F83618D5E7AF
:10275000019800F00CFCE268002805DA80230127CC
:102760001343E3603800FEBDE16A2368994200D953
:102770000B00A1695B1821695B1A920603D5A26A56
:10278000934200DA1300834200DA0300F618B5E73B
:10279000361AAA0701D5711AA160EA0703D5009A73
:1027A0009B1AF31A6360009B9E19202326609D43A9
:1027B000C5E7C04603001000BFCFF7FFC26893070C
:1027C00005D1212201200E4B40421A607047202380
:1027D000134012030AD5002B02D0806A0138F5E7B6
:1027E0000368826900699B18181AF7E7002B01D06B
:1027F000806AEBE70368826900699B18181AE5E7AD
:102800000403001037B5184C18492200002000F0CE
:10281000C9F8802380225B00D2000021200000F054
:102820002FF8134C134D22002900012000F0BAF8B4
:10283000802380225B00D2000021200000F020F8DD
:102840000D4B1B680193022B0DDD0C4C290022005F
:10285000022000F0A7F8802380225B00D200002134
:10286000200000F00DF837BD48020010CD460000F2
:1028700084020010CF4600009C460000C0020010F9
:10288000F0B5C5680124AE0710D08026B600B2426C
:1028900007D08026F600B2420AD080267600B242E7
:1028A00004D1084F5E1E0124BE4204D92000F0BDB1
:1028B000010023002431154301610160C361C5603B
:1028C0000024F3E7FEFFFF0003000B4330B59B0736
:1028D00015D00023CA5CC2540133002AFAD130BD9E
:1028E00004C304310A68074C141994432C42F7D0EE
:1028F000D1B2197001330029F1D01212F8E70300A8
:10290000014DEFE7FFFEFEFE80808080032110B5C1
:10291000421C084218D1114C0368114959189943B7
:10292000214219D0DCB2411C002C0BD0FF24240220
:10293000811C234206D0FF2109040B40591E8B4104
:10294000C318D91C881A04E0431C0078002801D160
:10295000981A10BD1800DCE70430DDE78080808025
:10296000FFFEFEFE70B50C4D2B68002B01D10B4B0A
:102970002B600323C41C2E689C433419200000F0F4
:102980009BF8002802D12C60300070BD0C2201267B
:10299000034B76421A60F7E7FC02001010030010A8
:1029A00004030010F7B50D0001901000140000F0B2
:1029B00033F82B78722B1FD0772B04D0612B26D1C4
:1029C0000823144A01E0042302220220691C032781
:1029D00084460426012508782B2810D0622813D0BD
:1029E000E260019A62611B0704D5022200212000E7
:1029F000FFF76CFE2000FEBD00230122E5E76046E4
:102A00003A4303430131E6E732432B43FAE700241C
:102A1000F0E7C04602800000F0B5C46889B0050048
:102A2000A30722D0230718D44769066900F022F8CB
:102A3000380000F099FA230502D5300000F0D9F9EA
:102A40000B4BA40DA4059C4207D12022296A68469D
:102A500000F099FA684600F016FA3C22002128009E
:102A600000F0C3F9002009B0F0BD01204042FAE7B0
:102A7000000080AD73B5002813D000F027F80500E2
:102A8000280076BD30006043094BC01800F01EF8E6
:102A9000002801D001256D420134019BA342F1DCE5
:102AA000EEE7044B04001B68050001933C26F4E7A5
:102AB000480200109C460000034B0200181E02D082
:102AC00000209A42404170471005001070B503265F
:102AD000C36804001E4011D09B0611D5856AFFF71C
:102AE00057FCE268094B20001340E360FFF716FD36
:102AF0000022060029002000FFF7E8FD300070BD2D
:102B0000036882699D180369ED1AEAE7FFCFFFFFAA
:102B100080B582B000AF0200FB1D1A70FB1D1B7850
:102B20005BB2803301D1012306E0FB1D1B785BB251
:102B30001800FEF727F800231800BD4602B080BD3C
:102B400080B584B000AFF860B9607A601A00FB1CF1
:102B50001A70F968BA681300DB009B1A9B009B1877
:102B6000CA187B68D318FA1C12781A70C046BD4682
:102B700004B080BD80B582B000AF78607B689B6890
:102B80001800BD4602B080BD80B582B000AF78604D
:102B900039603B68DB05DA0D7B68DA60C046BD460C
:102BA00002B080BD80B582B000AF78607B685B69A1
:102BB000DBB21800BD4602B080BD80B586B000AF64
:102BC000786000237B610023FB6000233B617B680E
:102BD0001800FEF77BFC0300FB6000233B6105E06F
:102BE0007B6919337B613B6901333B613A69FB685F
:102BF0009A42F5D37B691800BD4606B080BD80B50A
:102C000084B000AFF860B9607A603B603B681B78C5
:102C1000002B17D1FB68BA68802109018C466244F9
:102C20009200D35801217A6891400A00D2431A4099
:102C30001100FB68BA68802000018446624492005B
:102C4000D15032E03B685B78002B0CD101227B68CD
:102C50009A401100FB68BA688A20000184466244E9
:102C60009200D1500BE001227B689A401100FB6872
:102C7000BA6888200001844662449200D150FB6803
:102C8000BA68802109018C4662449200D258012121
:102C90007B6899400B001A431100FB68BA688020DA
:102CA0000001844662449200D150C046BD4604B043
:102CB00080BD80B582B000AF78600A00FB1C1A703E
:102CC000FB1C1B7801229A407B685A62C046BD46B5
:102CD00002B080BD80B582B000AF0200FB1D1A704B
:102CE000FB1D1B781800FEF72BFEFB1D1B78180040
:102CF000FEF74AFEC046BD4602B080BD80B582B038
:102D000000AF78607B681B68042213405A1E934111
:102D1000DBB21800BD4602B080BD80B582B000AF06
:102D200078600A00FB1C1A70FB1C1B78002B0DD06E
:102D30007B681B6801221A437B681A607B685B68AA
:102D4000402293431A007B685A6005E07B685B6809
:102D500040221A437B685A60C046BD4602B080BD1F
:102D600080B582B000AF78600A00FB1C1A70FB1CB3
:102D70001B78002B06D07B681B6801221A437B68F6
:102D80001A600BE07B685B684022134006D07B68CA
:102D90001B68012293431A007B681A60C046BD4637
:102DA00002B080BD80B500AFFFF7F2F9C046BD4666
:102DB00080BD80B500AFC046BD4680BD80B500AFC8
:102DC000FFF746FAC046BD4680BD80B500AFC0469D
:102DD000BD4680BD10B5FFF715FDFEF7FBF810BD31
:102DE000FEE710B500F095F810BD10B500F0A7F89B
:102DF00010BD10B5002811D080210C3849050160A4
:102E00008268002A0AD013688B4207D1436854684D
:102E100003331B19436093688360F1E710BD70B5FD
:102E20000D000400207800280FD0AB68013BAB6098
:102E3000002B05DB2B685A1C2A6018700134F1E75F
:102E40002900FFF7C5FA431CF8D170BD03000B43FE
:102E500030B59B0707D00024A2420BD100200FE021
:102E600004300431043A032AF5D903680C68A342FC
:102E7000F6D0F0E7035D651C0C5DA34201D0181B82
:102E800030BD2C00E8E710B50400FFF73FFD01005E
:102E9000200000F072F810BD03000B4321D400297C
:102EA00031D00122D207030901E009011209994238
:102EB000FBD9430801E0490052089942FBD900E0E0
:102EC0004908401A07D35241FAD3014610467047C9
:102ED00049084018F7D29218FAD340180146104614
:102EE0007047CB0F00D04942021000D540425340FA
:102EF00008B5FFF7D4FF0CBC521000D34042002AA3
:102F000000D549421847F446002000F001F8604718
:102F100070478446830708D18B0706D1131F04D35B
:102F200004C904C0043BFBD21A1D524205D0891AC1
:102F3000801A8B5C83540132FBD160467047844613
:102F4000043A09D3830707D109060B0A19430B0C6E
:102F50001943043A02C0FCD2043203D0017001309C
:102F6000013AFBD160467047012040427047012082
:102F70004042704701204042704701204042704764
:102F800001204042704701204042704710007047C6
:102F90002B434D5449FFFFFF2E2E2F736F75726325
:102FA000652F73696D3830305F636D645F74726173
:102FB0006E736D697465722E633A3135203A204E16
:102FC000554C4C20213D20666C6167730000000069
:102FD0002E2E2F736F757263652F73696D383030C5
:102FE0005F636D645F7472616E736D697465722E78
:102FF000633A3234203A204E554C4C20213D206615
:103000006C616773000000002E2E2F736F75726362
:10301000652F73696D3830305F636D645F74726102
:103020006E736D697465722E633A3333203A204EA5
:10303000554C4C20213D20636F6D6D616E647300B3
:103040004154563045302B434D47443D312C343BA1
:103050002B434D47463D313B2B4950523D3936308D
:10306000300D0A0041542B434D47523D310D0A00AB
:1030700041542B434D47443D310D0A0041542B43ED
:1030800047534E0D0A00FFFF2E2E2F64726976659E
:1030900072732F66736C5F636C6F636B2E633A3869
:1030A00033203A2062617365000000002E2E2F64E9
:1030B0007269766572732F66736C5F636C6F636B96
:1030C0002E633A323532203A20636F6E6669672D7F
:1030D0003E74617267657446726571203C3D205391
:1030E0005953504C4C5F4D41585F4F5554505554B7
:1030F0005F465245515F485A000000002E2E2F6453
:103100007269766572732F66736C5F636C6F636B45
:103110002E633A323635203A20696E7075744672E5
:10312000657120213D203055000000002E2E2F64B7
:103130007269766572732F66736C5F636C6F636B15
:103140002E633A333237203A207764744F736344E6
:103150006976203E3D20325500FFFFFF6E120000D1
:1031600078120000AA120000821200008C120000E7
:10317000A0120000AA120000961200002E2E2F644A
:103180007269766572732F66736C5F646D612E6809
:103190003A323638203A206368616E6E656C203CA6
:1031A0002046534C5F464541545552455F444D417E
:1031B0005F4E554D4245525F4F465F4348414E4E2C
:1031C000454C536E28626173652900002E2E2F64D2
:1031D0007269766572732F66736C5F646D612E68B9
:1031E0003A323830203A206368616E6E656C203C5C
:1031F0002046534C5F464541545552455F444D412E
:103200005F4E554D4245525F4F465F4348414E4EDB
:10321000454C536E28626173652900002E2E2F6481
:103220007269766572732F66736C5F646D612E6868
:103230003A333034203A206368616E6E656C203C0E
:103240002046534C5F464541545552455F444D41DD
:103250005F4E554D4245525F4F465F4348414E4E8B
:10326000454C536E28626173652900002E2E2F6431
:103270007269766572732F66736C5F646D612E6818
:103280003A333136203A206368616E6E656C203CBB
:103290002046534C5F464541545552455F444D418D
:1032A0005F4E554D4245525F4F465F4348414E4E3B
:1032B000454C536E28626173652900002E2E2F64E1
:1032C0007269766572732F66736C5F646D612E68C8
:1032D0003A333238203A206368616E6E656C203C68
:1032E0002046534C5F464541545552455F444D413D
:1032F0005F4E554D4245525F4F465F4348414E4EEB
:10330000454C536E28626173652900002E2E2F6490
:103310007269766572732F66736C5F646D612E6877
:103320003A333431203A206368616E6E656C203C1C
:103330002046534C5F464541545552455F444D41EC
:103340005F4E554D4245525F4F465F4348414E4E9A
:10335000454C536E28626173652900002E2E2F6440
:103360007269766572732F66736C5F646D612E632C
:103370003A313130203A20696E7374616E63652092
:103380003C2041525241595F53495A4528735F646A
:103390006D61426173657329000000002E2E2F6459
:1033A0007269766572732F66736C5F646D612E63EC
:1033B0003A313534203A20286368616E6E656C209E
:1033C0003C2046534C5F464541545552455F444D61
:1033D000415F4E554D4245525F4F465F4348414E17
:1033E0004E454C536E28626173652929202626209C
:1033F000284E554C4C20213D2074726967676572D8
:10340000290000002E2E2F647269766572732F6674
:10341000736C5F646D612E633A313733203A2063F9
:1034200068616E6E656C203C2046534C5F4645419A
:10343000545552455F444D415F4E554D4245525F94
:103440004F465F4348414E4E454C536E2862617370
:10345000652900002E2E2F647269766572732F66BF
:10346000736C5F646D612E633A323037203A207896
:1034700066657263666720213D204E554C4C000006
:103480002E2E2F647269766572732F66736C5F647B
:103490006D612E633A323039203A202878666572A1
:1034A0006366672D3E737263496E63203D3D203035
:1034B00029207C7C2028786665726366672D3E73C0
:1034C0007263496E63203D3D203129207C7C202899
:1034D000786665726366672D3E737263496E63201A
:1034E0003D3D203229207C7C202878666572636609
:1034F000672D3E737263496E63203D3D2034290081
:103500002E2E2F647269766572732F66736C5F64FA
:103510006D612E633A323131203A20287866657227
:103520006366672D3E647374496E63203D3D2030B1
:1035300029207C7C2028786665726366672D3E644E
:103540007374496E63203D3D203129207C7C202806
:10355000786665726366672D3E647374496E632096
:103560003D3D203229207C7C202878666572636688
:10357000672D3E647374496E63203D3D20342900FD
:103580002E2E2F647269766572732F66736C5F647A
:103590006D612E633A323133203A202878666572A5
:1035A0006366672D3E627974655769647468203D6F
:1035B0003D203129207C7C2028786665726366670F
:1035C0002D3E627974655769647468203D3D2032F0
:1035D00029207C7C2028786665726366672D3E62B0
:1035E0007974655769647468203D3D203429000072
:1035F0002E2E2F647269766572732F66736C5F640A
:103600006D612E633A323135203A207866657263F7
:1036100066672D3E7472616E73666572436F756E78
:1036200074203C3D20444D415F4D41585F54524110
:103630004E534645525F434F554E54002E2E2F6435
:103640007269766572732F66736C5F646D612E6349
:103650003A323530203A20284E554C4C20213D201E
:103660006465736329202626202830203D3D2028CC
:1036700075696E7433325F74296465736320252025
:1036800031362920262620284E554C4C20213D201D
:103690007866657263666729000000002E2E2F642D
:1036A0007269766572732F66736C5F646D612E63E9
:1036B0003A323531203A20284E554C4C20213D20BD
:1036C0007372634164647229202626202830203DCD
:1036D0003D202875696E7433325F742973726341BB
:1036E000646472202520786665726366672D3E6289
:1036F0007974655769647468290000002E2E2F6460
:103700007269766572732F66736C5F646D612E6388
:103710003A323532203A20284E554C4C20213D205B
:103720006473744164647229202626202830203D69
:103730003D202875696E7433325F74296473744157
:10374000646472202520786665726366672D3E6228
:103750007974655769647468290000002E2E2F64FF
:103760007269766572732F66736C5F646D612E6328
:103770003A323533203A20284E554C4C203D3D20DE
:103780006E6578744465736329207C7C2028302022
:103790003D3D202875696E7433325F74296E6578FB
:1037A0007444657363202520313629002E2E2F6442
:1037B0007269766572732F66736C5F646D612E63D8
:1037C0003A323636203A204E554C4C20213D206866
:1037D000616E646C650000002E2E2F647269766540
:1037E00072732F66736C5F646D612E633A32373883
:1037F000203A20284E554C4C20213D2068616E64B3
:103800006C652920262620286368616E6E656C2011
:103810003C2046534C5F464541545552455F444D0C
:10382000415F4E554D4245525F4F465F4348414EC2
:103830004E454C536E2862617365292900000000D3
:103840002E2E2F647269766572732F66736C5F64B7
:103850006D612E633A323936203A2068616E646CAD
:103860006520213D204E554C4C0000002E2E2F642B
:103870007269766572732F66736C5F646D612E6317
:103880003A333131203A20284E554C4C20213D20EE
:10389000636F6E6669672920262620284E554C4C9A
:1038A00020213D2073726341646472292026262002
:1038B000284E554C4C20213D206473744164647241
:1038C000290000002E2E2F647269766572732F66B0
:1038D000736C5F646D612E633A333132203A202875
:1038E000627974655769647468203D3D20312920F0
:1038F0007C7C2028627974655769647468203D3D3A
:10390000203229207C7C2028627974655769647490
:1039100068203D3D203429002E2E2F647269766583
:1039200072732F66736C5F646D612E633A33313648
:10393000203A2028786665725F636F756E74203C4C
:103940003D20444D415F4D41585F5452414E5346D6
:1039500045525F434F554E542920262620283020BB
:103960003D3D207472616E73666572427974657351
:103970002025206279746557696474682900000005
:103980002E2E2F647269766572732F66736C5F6476
:103990006D612E633A333539203A20284E554C4C10
:1039A00020213D2068616E646C6529202626202830
:1039B0004E554C4C20213D20636F6E66696729008F
:1039C0002E2E2F647269766572732F66736C5F6436
:1039D0006D612E633A333836203A204E554C4C20D8
:1039E000213D2068616E646C6500FFFF2E2E2F6400
:1039F0007269766572732F66736C5F6770696F2E7C
:103A0000633A3630203A20706F7274203C20415265
:103A10005241595F53495A4528735F6770696F4334
:103A20006C6F636B4E616D652900FFFF2E2E2F6456
:103A30007269766572732F66736C5F7265736574F5
:103A40002E633A3632203A20626974506F73203CFC
:103A500020333275000000002E2E2F6472697665C7
:103A600072732F66736C5F72657365742E633A3779
:103A700034203A20626974506F73203C20333275D1
:103A800000FFFFFF2E2E2F647269766572732F661A
:103A9000736C5F7370692E683A333938203A204E60
:103AA000554C4C20213D2062617365002E2E2F6401
:103AB0007269766572732F66736C5F7370692E68B6
:103AC0003A343330203A204E554C4C20213D206270
:103AD000617365002E2E2F647269766572732F668E
:103AE000736C5F7370692E683A343434203A204E18
:103AF000554C4C20213D2062617365002E2E2F64B1
:103B00007269766572732F66736C5F7370692E636A
:103B10003A313631203A204E554C4C20213D20621E
:103B2000617365002E2E2F647269766572732F663D
:103B3000736C5F7370692E633A313733203A2066B5
:103B4000616C7365000000002E2E2F64726976652B
:103B500072732F66736C5F7370692E633A313836F7
:103B6000203A204E554C4C20213D20636F6E6669F3
:103B7000670000002E2E2F647269766572732F66BF
:103B8000736C5F7370692E633A313934203A204E7A
:103B9000554C4C20213D20636F6E66696700000024
:103BA0002E2E2F647269766572732F66736C5F7345
:103BB00070692E633A323136203A202128284E553A
:103BC0004C4C203D3D206261736529207C7C20287F
:103BD0004E554C4C203D3D20636F6E666967292031
:103BE0007C7C202830203D3D20737263436C6F63E2
:103BF0006B5F487A292900002E2E2F647269766542
:103C000072732F66736C5F7370692E633A32353648
:103C1000203A204E554C4C20213D20636F6E666942
:103C2000670000002E2E2F647269766572732F660E
:103C3000736C5F7370692E633A323731203A2021FA
:103C400028284E554C4C203D3D206261736529204B
:103C50007C7C20284E554C4C203D3D20636F6E6689
:103C600069672929000000002E2E2F64726976658D
:103C700072732F66736C5F7370692E633A333030E2
:103C8000203A204E554C4C20213D20626173650046
:103C90002E2E2F647269766572732F66736C5F7354
:103CA00070692E633A333133203A202128284E554B
:103CB0004C4C203D3D206261736529207C7C20288E
:103CC00030203D3D2062617564726174655F4270B1
:103CD0007329207C7C202830203D3D207372634373
:103CE0006C6F636B5F487A29290000002E2E2F64C9
:103CF0007269766572732F66736C5F7370692E6379
:103D00003A333330203A204E554C4C20213D20622E
:103D1000617365002E2E2F647269766572732F664B
:103D2000736C5F7370692E633A333436203A2028FF
:103D30004E554C4C20213D206261736529207C7CCE
:103D400020284E554C4C20213D2068616E646C65E6
:103D5000290000002E2E2F647269766572732F661B
:103D6000736C5F7370692E633A333739203A2021C0
:103D700028284E554C4C203D3D206261736529201A
:103D80007C7C20284E554C4C203D3D207866657249
:103D900029207C7C2028284E554C4C203D3D207805
:103DA0006665722D3E747844617461292026262050
:103DB000284E554C4C203D3D20786665722D3E7254
:103DC0007844617461292929000000002E2E2F6497
:103DD0007269766572732F66736C5F7370692E6398
:103DE0003A343637203A202128284E554C4C203D75
:103DF0003D206261736529207C7C20284E554C4C07
:103E0000203D3D2068616E646C6529207C7C202803
:103E10004E554C4C203D3D207866657229207C7CB7
:103E20002028284E554C4C203D3D20786665722D4B
:103E30003E7478446174612920262620284E554C12
:103E40004C203D3D20786665722D3E727844617449
:103E500061292929000000002E2E2F6472697665E1
:103E600072732F66736C5F7370692E633A353530E9
:103E7000203A204E554C4C20213D2068616E646CE8
:103E8000650000002E2E2F647269766572732F66AE
:103E9000736C5F7370692E633A353730203A204E69
:103EA000554C4C20213D2068616E646C650000001B
:103EB0002E2E2F647269766572732F66736C5F7332
:103EC00070692E633A353831203A20284E554C4CD3
:103ED00020213D20626173652920262620284E5529
:103EE0004C4C20213D2068616E646C652900000007
:103EF0002E2E2F647269766572732F66736C5F73F2
:103F000070692E633A363138203A20284E554C4C91
:103F100020213D20626173652920262620284E55E8
:103F20004C4C20213D2068616E646C6529000000C6
:103F30002E2E2F647269766572732F66736C5F73B1
:103F400070692E633A363730203A20735F73706998
:103F500048616E646C655B305D0000002E2E2F643E
:103F60007269766572732F66736C5F7370692E6306
:103F70003A363738203A20735F73706948616E644F
:103F80006C655B315D00FFFF2E2E2F6472697665D4
:103F900072732F66736C5F73776D2E633A353720BB
:103FA0003A204E554C4C20213D2062617365000043
:103FB0002E2E2F647269766572732F66736C5F7331
:103FC000776D2E633A3538203A2066756E63203C53
:103FD000206B53574D5F4D4F5641424C455F4E55F8
:103FE0004D5F46554E4353002E2E2F647269766501
:103FF00072732F66736C5F73776D2E633A39372057
:104000003A204E554C4C20213D20626173650000E2
:104010002E2E2F647269766572732F66736C5F73D0
:10402000776D2E633A3938203A202866756E632002
:104030003E203029207C7C2066756E63203C206BFE
:1040400053574D5F464958454450494E5F4E554D74
:104050005F46554E435300FF004006400080064037
:1040600000C006400E0F10FF030405FF2E2E2F6424
:104070007269766572732F66736C5F7573617274A3
:104080002E633A3931203A2066616C736500000076
:104090002E2E2F647269766572732F66736C5F754E
:1040A000736172742E633A313030203A204E554C91
:1040B0004C20213D2068616E646C65002E2E2F64BB
:1040C0007269766572732F66736C5F757361727453
:1040D0002E633A313138203A204E554C4C20213D48
:1040E0002068616E646C65002E2E2F64726976659F
:1040F00072732F66736C5F75736172742E633A31DD
:104100003334203A204E554C4C20213D20626173BF
:10411000650000002E2E2F647269766572732F661B
:10412000736C5F75736172742E633A313335203A64
:10413000204E554C4C20213D2068616E646C65001A
:104140002E2E2F647269766572732F66736C5F759D
:10415000736172742E633A313336203A204E554CD7
:104160004C20213D2072696E67427566666572005B
:104170002E2E2F647269766572732F66736C5F756D
:10418000736172742E633A313531203A204E554CAA
:104190004C20213D20626173650000002E2E2F64AB
:1041A0007269766572732F66736C5F757361727472
:1041B0002E633A313532203A204E554C4C20213D69
:1041C0002068616E646C65002E2E2F6472697665BE
:1041D00072732F66736C5F75736172742E633A31FC
:1041E0003730203A202128284E554C4C203D3D2088
:1041F0006261736529207C7C20284E554C4C203D03
:104200003D20636F6E66696729207C7C2028302002
:104210003D3D20737263436C6F636B5F487A29295D
:10422000000000002E2E2F647269766572732F666F
:10423000736C5F75736172742E633A323034203A56
:10424000204E554C4C20213D2062617365000000DA
:104250002E2E2F647269766572732F66736C5F758C
:10426000736172742E633A323138203A204E554CC5
:104270004C20213D20636F6E666967002E2E2F64EF
:104280007269766572732F66736C5F757361727491
:104290002E633A323334203A202128284E554C4C94
:1042A000203D3D206261736529207C7C20283020E0
:1042B0003D3D2062617564726174655F427073296F
:1042C000207C7C202830203D3D20737263436C6F3E
:1042D000636B5F487A2929002E2E2F6472697665F8
:1042E00072732F66736C5F75736172742E633A32EA
:1042F0003939203A202128284E554C4C203D3D206C
:104300006261736529207C7C20284E554C4C203DF1
:104310003D20646174612929000000002E2E2F6465
:104320007269766572732F66736C5F7573617274F0
:104330002E633A333230203A202128284E554C4CF7
:10434000203D3D206261736529207C7C20284E55EC
:104350004C4C203D3D20646174612929000000001F
:104360002E2E2F647269766572732F66736C5F757B
:10437000736172742E633A333637203A202128282D
:104380004E554C4C203D3D206261736529207C7C5C
:1043900020284E554C4C203D3D2068616E646C6574
:1043A000292900002E2E2F647269766572732F669C
:1043B000736C5F75736172742E633A333931203ACE
:1043C000202128284E554C4C203D3D2062617365CC
:1043D00029207C7C20284E554C4C203D3D20686196
:1043E0006E646C6529207C7C20284E554C4C203D09
:1043F0003D20786665722929000000002E2E2F646A
:104400007269766572732F66736C5F75736172740F
:104410002E633A333933203A2021282830203D3D7D
:1044200020786665722D3E6461746153697A6529EE
:10443000207C7C20284E554C4C203D3D20786665E4
:10444000722D3E6461746129290000002E2E2F64B4
:104450007269766572732F66736C5F7573617274BF
:104460002E633A343136203A204E554C4C20213DB3
:104470002068616E646C65002E2E2F64726976650B
:1044800072732F66736C5F75736172742E633A3446
:104490003237203A204E554C4C20213D2068616E29
:1044A000646C65002E2E2F647269766572732F66B8
:1044B000736C5F75736172742E633A343238203ACC
:1044C000204E554C4C20213D20636F756E740000CA
:1044D0002E2E2F647269766572732F66736C5F750A
:1044E000736172742E633A343534203A20212828BF
:1044F0004E554C4C203D3D206261736529207C7CEB
:1045000020284E554C4C203D3D2068616E646C6502
:1045100029207C7C20284E554C4C203D3D2078663F
:1045200065722929000000002E2E2F6472697665BD
:1045300072732F66736C5F75736172742E633A3495
:104540003536203A2021282830203D3D20786665E8
:10455000722D3E6461746153697A6529207C7C20E8
:10456000284E554C4C203D3D20786665722D3E64AA
:1045700061746129290000002E2E2F64726976650E
:1045800072732F66736C5F75736172742E633A3544
:104590003431203A204E554C4C20213D2068616E2C
:1045A000646C65002E2E2F647269766572732F66B7
:1045B000736C5F75736172742E633A353535203ACA
:1045C000204E554C4C20213D2068616E646C650086
:1045D0002E2E2F647269766572732F66736C5F7509
:1045E000736172742E633A353536203A204E554C3D
:1045F0004C20213D20636F756E7400002E2E2F64B9
:104600007269766572732F66736C5F75736172740D
:104610002E633A353731203A20284E554C4C202114
:104620003D20626173652920262620284E554C4C7A
:1046300020213D2068616E646C6529002E2E2F625A
:104640006F6172642F626F6172642E633A35382035
:104650003A206B5374617475735F5375636365734C
:1046600073203D3D20726573756C74002E2E2F648F
:104670007269766572732F66736C5F636C6F636BC0
:104680002E683A333837203A2076616C75652021E0
:104690003D20305500FFFFFF0101FFFF0300000038
:1046A0002A2A2A20617373657274206661696C65B9
:1046B00064203A20002A2A2A205F437379735F61BD
:1046C0006C6C6F63206661696C65640A00720077C8
:0446D00000FFFFFFE9
:0446D400001BB70010
:04000003000000D524
:00000001FF
